S00C00004C3354332E7372656312
S11300000C942A000C9434000C9434000C943400A6
S11300100C9434000C9434000C9434000C9434008C
S11300200C9434000C9434000C9434000C9434007C
S11300300C9434000C9434000C9434000C9434006C
S11300400C9434000C9434000C9434000C9434005C
S11300500C94340011241FBECFE5D8E0DEBFCDBF21
S11300600E9467000C9485000C940000CF93DF93EA
S11300701F92CDB7DEB78983898190E0062E02C036
S1130080959587950A94E2F780FD11C083ED90E37E
S11300900197F1F700C00000898190E002C09595B6
S11300A087956A95E2F780FD04C081E003C080E093
S11300B001C080E00F90DF91CF91089598B381E063
S11300C0892788BB98B382E0892788BB089587B3C2
S11300D0836087BB87B38B7F87BB88B3846088BB0F
S11300E088B3816088BB88B38D7F88BBC0E001C0C2
S11300F0C0E086B362E00E9436008823C9F3C111D0
S1110100F8CF0E945E00C1E0F4CFF894FFCF68
S9030000FC
