S01700004763634170706C69636174696F6E312E737265635B
S11300000C942A000C9434000C9434000C943400A6
S11300100C9434000C9434000C9434000C9434008C
S11300200C9434000C9434000C9434000C9434007C
S11300300C9434000C9434000C9434000C9434006C
S11300400C9434000C9434000C9434000C9434005C
S11300500C94340011241FBECFE5D8E0DEBFCDBF21
S11300600E9468000C9479000C94000082B38064B0
S113007082BB2FE986E891E0215080409040E1F76F
S113008000C0000082B38F7B82BB2FE986E891E039
S1130090215080409040E1F700C00000089582B3F1
S11300A0806482BB2FE78AE196E021508040904033
S11300B0E1F700C0000082B38F7B82BB2FE78AE1A7
S11300C096E0215080409040E1F700C00000089580
S11300D087B38E7F87BB81B3806481BB82B3816029
S11300E082BBB09903C00E943600FBCF0E944F0030
S10900F0F8CFF894FFCFE5
S9030000FC
