:100000000C942A000C9434000C9434000C943400AA
:100010000C9434000C9434000C9434000C94340090
:100020000C9434000C9434000C9434000C94340080
:100030000C9434000C9434000C9434000C94340070
:100040000C9434000C9434000C9434000C94340060
:100050000C94340011241FBECFE5D8E0DEBFCDBF25
:100060000E9441000C9458000C94000090BD89B986
:1000700088E18AB98EEA80BD08955F9BFECF8CB17E
:10008000089587E690E00E9436008FEF87BB0E94BC
:100090003D008130E1F798B3892788BB2FEF81EECF
:1000A00094E0215080409040E1F700C00000EFCF85
:0400B000F894FFCFF2
:00000001FF
