S012000055534152542D53656E642E73726563CC
S11300000C942A000C9434000C9434000C943400A6
S11300100C9434000C9434000C9434000C9434008C
S11300200C9434000C9434000C9434000C9434007C
S11300300C9434000C9434000C9434000C9434006C
S11300400C9434000C9434000C9434000C9434005C
S11300500C94340011241FBECFE5D8E0DEBFCDBF21
S11300600E9441000C946D000C94000090BD89B96D
S113007088E18AB98EEA80BD08955D9BFECF8CB974
S1130080089587E690E00E9436008AB38E7F8ABB8B
S11300908BB381608BBB89B3817001C08C2FC9B3D2
S11300A0C1708C17D9F3C111F9CF81E00E943D00D2
S11300B02FEF80E792E0215080409040E1F700C0AC
S11300C00000C89BFECF2FEF80E792E021508040D4
S11100D09040E1F700C00000E1CFF894FFCFAC
S9030000FC
