S01700004763634170706C69636174696F6E312E737265635B
S11300000C942A000C943C000C943C000C943C008E
S11300100C943C000C943C000C943C000C943C006C
S11300200C943C000C943C000C943C000C943C005C
S11300300C943C000C943C000C943C000C943C004C
S11300400C943C000C943C000C943C000C943C003C
S11300500C943C0011241FBECFE5D8E0DEBFCDBF19
S113006020E0A0E6B0E001C01D92A236B207E1F79D
S11300700E948D000C9490000C94000082B3806167
S113008082BB2FE986E891E0215080409040E1F75F
S113009000C0000082B38F7E82BB2FE986E891E026
S11300A0215080409040E1F700C00000089582B3E1
S11300B0806182BB2FE78AE196E021508040904026
S11300C0E1F700C0000082B38F7E82BB2FE78AE194
S11300D096E0215080409040E1F700C00000089570
S11300E0B1991AC08091600090916100019690933B
S11300F0610080936000019711F40E945700809181
S1130100600090916100029719F40E943E000895E6
S1130110109261001092600008950E947000FDCF5B
S1070120F894FFCF7D
S9030000FC
