S00C00004C3354322E7372656313
S11300000C942A000C9434000C9434000C943400A6
S11300100C9434000C9434000C9434000C9434008C
S11300200C9434000C9434000C9434000C9434007C
S11300300C9434000C9434000C9434000C9434006C
S11300400C9434000C9434000C9434000C9434005C
S11300500C94340011241FBECFE5D8E0DEBFCDBF21
S11300600E9445000C946E000C94000020E030E0E7
S113007008C0E9EFF0E03197F1F700C000002F5F0E
S11300803F4F28173907A8F3089587B3816087BBCA
S113009087B38D7F87BB88B3826088BBC8EED3E00B
S11300A010E098B381E0892788BBB19913C083ED30
S11300B090E30197F1F700C00000B1990BC0111152
S11300C004C0C4E6D0E011E003C0C8EED3E010E001
S11300D0B19BFECFCE010E943600E3CFF894FFCF50
S9030000FC
