:100000000C942A000C9434000C9434000C943400AA
:100010000C9434000C9434000C9434000C94340090
:100020000C9434000C9434000C9434000C94340080
:100030000C9434000C9434000C9434000C94340070
:100040000C9434000C9434000C9434000C94340060
:100050000C94340011241FBECFE5D8E0DEBFCDBF25
:100060000E9445000C9478000C94000090BD89B962
:1000700088E18AB98EE880BD08955D9BFECF8CB97A
:1000800008955F9BFECF8CB1089587E690E00E94B3
:1000900036008FEF87BB1ABA8BBB10E080E0C9B384
:1000A000C1708C1771F0C1110CC081E0111180E09A
:1000B000D82F111102C080E701C08FE00E943D00DF
:1000C0001D2F5F9B0AC00E944100803711F08F30C6
:1000D00021F498B381E0892788BB2FEF80E792E075
:1000E000215080409040E1F700C000008C2FD7CF16
:0400F000F894FFCFB2
:00000001FF
