:100000000C942A000C9434000C9434000C943400AA
:100010000C9434000C9434000C9434000C94340090
:100020000C9434000C9434000C9434000C94340080
:100030000C9434000C9434000C9434000C94340070
:100040000C9434000C9434000C9434000C94340060
:100050000C94340011241FBECFE5D8E0DEBFCDBF25
:100060000E9444000C9468000C94000007C089EFC3
:1000700090E00197F1F700C00000C9019C012150F8
:100080003109892BA1F7089587B3816087BB87B3B6
:100090008D7F87BB88B3826088BBC8EED3E010E059
:1000A00098B381E0892788BBB19909C011110CC0B0
:1000B000C83ED34031F4C4E6D0E011E005C010E002
:1000C00003C0C8EED3E011E0CE010E943600E8CFB5
:0400D000F894FFCFD2
:00000001FF
